:10000000000002200D3B0000353B0000D10D000038
:10001000393B00003B3B00003D3B0000000000007E
:100020000000000000000000000000003F3B000056
:10003000413B000000000000433B0000453B000046
:10004000ED200000473B000089230000B12B000099
:10005000C12B0000473B0000ED210000CD24000033
:10006000DD290000ED290000473B0000473B000070
:10007000473B0000473B0000473B0000473B000078
:10008000473B0000BD080000473B0000473B000025
:1000900059090000473B0000473B0000473B000078
:1000A000473B0000473B0000473B0000473B000048
:1000B00025240000473B0000000000000000000075
:1000C000473B0000473B0000473B00002D29000054
:1000D000473B0000473B0000473B0000473B000018
:1000E000473B00000000000000000000000000008E
:1000F00000000000473B000000000000473B0000FC
:1001000000000000000000000000000000000000EF
:1001100000000000000000000000000000000000DF
:1001200000000000000000000000000000000000CF
:1001300000000000000000000000000000000000BF
:1001400000000000000000000000000000000000AF
:10015000000000000000000000000000000000009F
:10016000000000000000000000000000000000008F
:10017000000000000000000000000000000000007F
:10018000000000000000000000000000000000006F
:10019000000000000000000000000000000000005F
:1001A000000000000000000000000000000000004F
:1001B000000000000000000000000000000000003F
:1001C000000000000000000000000000000000002F
:1001D000000000000000000000000000000000001F
:1001E000000000000000000000000000000000000F
:1001F00000000000000000000000000000000000FF
:1002000010B5054C237833B9044B13B10448AFF350
:1002100000800123237010BDE009002000000000D1
:1002200004C6000008B5034B1BB103490348AFF3F4
:10023000008008BD00000000E409002004C60000A2
:10024000A3F5803A704700BF174B002B08BF134B34
:100250009D46FFF7F5FF00218B460F461348144AD1
:10026000121A03F03FFD0E4B002B00D098470D4BA8
:10027000002B00D098470020002104000D000D48FD
:10028000002802D00C4805F0CDFD03F06DFC2000E5
:10029000290000F08BF803F057FC00BF00000800B5
:1002A000000000000000000000000220E009002023
:1002B00018130020255E00005171000070470000F7
:1002C00007B500230DF10601ADF8063002F088FAFB
:1002D00018B1114ABA2100F0C5FABDF9060007EEBF
:1002E000900AF8EEE77A17EE900A0AF01BF908A3D5
:1002F000D3E900230AF06EF9084B00220AF06AF9EC
:100300000AF040FC00EE100A03B05DF804FB00BFE9
:10031000CDCCCCCCCCCC0C4040AF00000000303F6A
:1003200070B52DED048B002084B0FFF7C9FF0120CC
:10033000B0EE409AFFF7C4FF0220F0EE408AFFF7CC
:10034000BFFF0320B0EE408AFFF7BAFF10488DEDE3
:10035000009ACDED018A8DED028A8DED030A03F03E
:1003600013FD0C4E6D46042455F8040B0AF0DAF820
:1003700002460B46304603F007FD013CF4D1064827
:1003800004B0BDEC048BBDE8704003F0FDBC00BFC1
:1003900047AF000055AF000046BA000000F5E0701E
:1003A0004FF0A043002243F82020704700B53B489F
:1003B0003B4C8FB003F0E8FC1720FFF7EFFF0C2059
:1003C000FFF7ECFF1120FFF7E9FF0120FFF7E6FF41
:1003D00020680190334901A802F022F918B1324A8D
:1003E000A02100F03FFA314A60685168127A02ABEE
:1003F00003C302A900201A7002F070F918B12A4A4A
:10040000A52100F02FFA2A4AD4F80D005168127A7B
:1004100005AB03C305A901201A7002F05FF918B1FA
:10042000214AA92100F01EFA224AD4F81600516888
:10043000127A08AB03C308A902201A7002F04EF921
:1004400018B1194AAD2100F00DFA1B4AD4F81F006B
:100450005168127A0BAB03C30BA903201A7002F088
:100460003DF918B1104AB12100F0FCF900F0D0FBC1
:10047000124A1348134C012100F012FC12480022CA
:100480004FF4004100F01EFC44F001044FF47A7573
:100490004FF47A40A047013DFAD1F7E759AF000089
:1004A00069AF0000BD02000040AF00006DAF00006A
:1004B00076AF00007FAF000088AF0000210300008E
:1004C000A8AF0000A0AF0000FC09002010B5036831
:1004D000292B044604D9074940F2CD1000F014FD41
:1004E00023681F2B83BF03F01F03034823604FF0D3
:1004F000A04010BDACAF00000003005007B5019054
:1005000001A8FFF7E3FF019A01239340C0F80C35DF
:1005100003B05DF804FB07B5019001A8FFF7D6FF13
:10052000019A01239340C0F8083503B05DF804FB3D
:1005300038B5054D044645F001054FF47A40A8470B
:10054000013CFAD138BD00BF80B000002DE9F34175
:100550003D4F3E4E0524022517F8013B019301A8AB
:10056000FFF7B4FF019B03F5E07340F8235001A8A7
:1005700016F8013B0193FFF7A9FF019B03F5E07318
:10058000013C40F82350E7D1152501A80195FFF75C
:100590009DFF019B03F5E07340F2032640F82360C2
:1005A000132401A80194FFF791FF019B03F5E07369
:1005B00040F2031840F823601C2601A80196FFF7BB
:1005C00085FF019B03F5E0731E2740F8238001A8F7
:1005D0000197FFF77BFF019B03F5E07340F8238051
:1005E0002846FFF798FF2046FFF795FF3046FFF7B4
:1005F00085FF3846FFF782FF1C20FFF77FFF1E2094
:10060000FFF77CFF4FF4FA70FFF792FF1C20FFF713
:1006100082FF1E20FFF77FFF3220FFF789FF1C209B
:10062000FFF76CFF1E20FFF769FF4FF4FA70FFF72A
:100630007FFF1C20FFF76FFF1E20FFF76CFFFA20E3
:10064000FFF776FFD8E700BF6CB0000067B000008E
:100650007FB506460D46144672B601F003FB01F065
:1006600041F90028FBD1134803F08EFB44F201034B
:100670009E420AD044F202039E4215D1228861684C
:100680000D4803F081FBFFF761FFA1680391084665
:1006900001F022FD236801950093024663680399E7
:1006A000064803F071FBEEE72946054803F06CFBB2
:1006B000E9E700BFEFAF000008B0000023B0000082
:1006C0004DB0000008B5FFF741FF000038B50E4BF4
:1006D0001B680021986803F06BFB4FF40041002079
:1006E00001F0A6F818B1094A142100F0BBF8084D32
:1006F00000F0C6FF0A2445F001054FF47A40A847F0
:10070000013CFAD138BD00BF2000002086B00000B7
:10071000F0B000007047000007B5044B0093044A96
:10072000402300F04BFF03B05DF804FB8907000095
:100730001D0A002030B50F4D0FCD89B06C460FC497
:1007400095E80F0084E80F0006222823CDE9002356
:1007500009480A4B06930022694600F0E3FC18B1F1
:10076000074A462100F07EF8064B00221A7009B0B5
:1007700030BD00BF64B100000000002000509D00AB
:10078000F6B000001C0A002038B50E480E4C0F4D84
:10079000002323700378EB5CD2B273B1043002F013
:1007A000DBFF18B10A4A562100F05CF8094B1A78B1
:1007B00012B12378002BFBD038BD0C3002F07AFC4C
:1007C000EFE700BF000000205D0A0020980B00202A
:1007D000F6B000001C0A002008B50848084A037853
:1007E000D35C33B1043002F035FFBDE80840FFF7B9
:1007F000A1BF0C3002F0F2FBF7E700BF00000020C1
:10080000980B0020FFF796BF10B50848D4B20378C4
:10081000074AD35C224623B1043002F09DFF2046F4
:1008200010BD0C3002F046FCF9E700BF00000020CC
:10083000980B002008B50948094A0378D35C0122C7
:1008400043B1043003F002F800280CBF01204FF040
:10085000FF3008BD0C3002F09DFCF5E700000020E1
:10086000980B002000B583B002900091019244F2F1
:10087000010071466A46FFF7EBFE03B000BD0000C1
:10088000094B5A7899780132D2B2914208BF0022BE
:10089000197891421FBF02705878182202FB00306D
:1008A00014BF043000207047600A0020024B4FF450
:1008B0003C6043F00103184790B10000F8B51F49B0
:1008C0001F4B0025C1F84051C1F84451C1F84851AF
:1008D000C1F84C51C1F80051C1F804511B684BB329
:1008E000D1F8044517490968641A24F07F442F465B
:1008F0001A68A24209D8A41A15441A7CDE691AB1F2
:10090000D3E905201F749047AEB90F4A0F4B1178F9
:100910001B788B4205D10133DBB2022B08BF0023C9
:10092000137012780A4B43F822500A4B4FF480128E
:10093000C3F80021F8BD3346DAE700BF00100140DC
:10094000800B00207C0B0020790B0020780B00200E
:10095000700B002000E100E02DE9F04FA14AA24910
:1009600013780978A14D994285B03CD00133DBB2B0
:10097000022B08BF002313709D4912789D4B0F680E
:1009800053F822003B1823F07F4300220B602B68B2
:1009900016461446944613B942B12B6006E0196816
:1009A00081420ED902B12B60091A196001272B6808
:1009B000DFF848A201934FF00008BEB9DFF844B257
:1009C00062E0401A0C44D968D3F81CE0C3F800C0B8
:1009D00031B13A1922F07F42C3E90121DE611E469E
:1009E00073460122D7E700263746E0E73446F6692A
:1009F0007F4B60681B68DFF810C2A168C21A22F042
:100A00007F42624500F2A8800A44226001222274DB
:100A10002A680023C4E90133E361002A40F0A5807D
:100A20002C60CAE79BF802105A1CD2B291428BF894
:100A3000002004BF00228BF80020182202FB03B321
:100A40002A6819799C68022977D0032900F08180EF
:100A5000012919D1207CB8B9D96861601A69A260EE
:100A60005A69E2609B69A361634B1B78002B18BF36
:100A700001466160BCE78C4200F091808946C969FB
:100A80000029F8D1002323749BF800309BF8012043
:100A90009A42C7D12B68B8F1000F04D1019A9A424B
:100AA00001D1002F43D0002B41D0D3F800A0534DEB
:100AB0004F4BD5F804751C68DFF850813E1B98F841
:100AC000003026F07F4603369BB94FF48033C5F8DB
:100AD0004433C5F804334A4B4FF40032C3F8802145
:100AE0001A604FF00109C5F80090FFF7DFFE88F8A3
:100AF0000090B2452CBF5444A41924F07F44C5F89B
:100B00004045D5F80435DB1B23F07F43E41B03335A
:100B100024F07F44A3420AD9D5F80435C5F84035FE
:100B2000FFF7C4FE364B4FF40032C3F80021324BBE
:100B300000221A7005B0BDE8F08F114691469FE77C
:100B40001174D2690123002AFAD1002B9CD02A60AB
:100B50009AE700231946F6E71B1A23F07F438B42DE
:100B600034BFCB1A0023236050E7216813689942F1
:100B700013D85B1A1360E26152E7091AD8691A4662
:100B800038B1034618688842F7D3401A18601846EF
:100B900013462160E061DC610FE71346F2E74C4544
:100BA00011D1D3692B6073B9DFF844E00120CDE99E
:100BB0000212CAF80800CEF800300F4B1870FFF789
:100BC00075FEDDE902120B68C969C9F81C1011B184
:100BD000086803440B602B68934218BF4FF001086C
:100BE00050E700BF780B0020790B0020800B00201D
:100BF0007C0B0020700B00206C0B002000100140CB
:100C000000E100E0600A0020FEFF7F006D0B002085
:100C1000F8B51B4E4FF40033C6F88030BFF34F8F4A
:100C2000BFF36F8F174D184F4FF480330124C5F871
:100C30004833C5F808336C60FFF738FEAC60002419
:100C40003C60FFF733FE114B1C70114B0B221C80D4
:100C50009A70104B1C60104B1C70104B4FF480129C
:100C60001C70E023C6F8802186F814333260C5F882
:100C7000084586F81133D5F804353B602046F8BDA9
:100C800000E100E0001001407C0B00206D0B002013
:100C9000600A0020800B0020780B0020790B0020D8
:100CA000074B9B784BB132B128B10368187C20B94F
:100CB00059745A617047072070470820704700BF79
:100CC000600A00202DE9F3411D4FBB7804460D4614
:100CD00016469BB390B31B4B4A1F9A422CD84369CC
:100CE00063B3437C0020012B0CBF88464FF0000803
:100CF00000F04EF80DF10700FFF7C2FDD0B101235F
:100D00000370114B4460D3F80435C0E90486C0E990
:100D100002359DF807307B700024002000F048F871
:100D200024B90A4B4FF48012C3F80021204602B0C8
:100D3000BDE8F0810424F0E70724F7E70824F5E78D
:100D4000600A0020FAFFFF000010014000E100E00F
:100D500072B6024A1368013313607047840B002097
:100D6000034A1368013B136003B962B6704700BFC2
:100D7000840B0020EFF30583C3F308032BB9EFF3D3
:100D80001480C04300F0010070470120704700004C
:100D900008B5FFF7EFFF012803D00449432000F016
:100DA000B3F8BDE80840FFF7D3BF00BF96B100001D
:100DB00008B5FFF7DFFF012803D00449512000F0F8
:100DC000A3F8BDE80840FFF7CBBF00BF96B1000015
:100DD0001EF0040F1CBFEFF309800AE0EFF3088058
:100DE0000549064A884201D8904202D88D464FF004
:100DF0000000034B184700000000022000E0012023
:100E0000050E00002DE9F347054600F02BFF00F02A
:100E100069FD0028FBD1304C3048314B241AE408DE
:100E200024049F6A44F00104002D4FD0AA692D4983
:100E3000204600F0C9FEEB680193AB682A49009395
:100E40002046D5E9002300F0D4FEEB690093274942
:100E5000D5E90423204600F0C0FE214BDB6A990748
:100E600003D52349204600F0ABFEDFF89490DFF86D
:100E700094A000264FF0010808FA06F33B4206D082
:100E800059F826201AB15146204600F09DFE013641
:100E90001A2EF1D13A0605D5114B16495A6B204648
:100EA00000F092FE17F4004F0D4E04D0B26B1249C1
:100EB000204600F089FED6F8F030DB0700D500BEF2
:100EC0002846FFF7FFFB02B0BDE8F0870B4920463C
:100ED00000F076FEC1E700BF68C6000008C600004B
:100EE00000ED00E0EBB1000000B2000035B2000000
:100EF00090B20000DFB20000FFB200005DB200005F
:100F0000DCB70000D4B2000007B5ADF800000191D5
:100F10006A46002144F20200FFF79AFB03B05DF835
:100F200004FB10B5034653E8000F0A4643E80024CB
:100F300094F0000FF7D110BD10B5034653E8002F11
:100F400042EA010043E8000494F0000FF6D110BD1E
:100F500010B5034653E8000F00EA010243E80024FD
:100F600094F0000FF6D110BD10B5034653E8002FE2
:100F700002EB010043E8000494F0000FF6D110BD2D
:100F800010B5034653E8002FA2EB010043E800042C
:100F900094F0000FF6D110BD0121FFF7CDBF002165
:100FA000FFF7D6BF10B50446002834D003681BB93C
:100FB0001A49FF20FFF7A8FF636823B917494FF4C8
:100FC0008070FFF7A1FFA36823B9144940F2011014
:100FD000FFF79AFFE36823B910494FF48170FFF7D8
:100FE00093FF238A23B90D4940F20310FFF78CFFCA
:100FF000D4E9012321689B1ADBB20A60013BDBB212
:10100000FF2B226802D10020107110BD1168481C0E
:1010100010600B70F2E70E20F7E700BF44B8000045
:1010200038B5044620B912494FF49270FFF76CFFAF
:101030000020FFF7ADFE2268616813688B4215D966
:10104000591E116013F8013C228AE56802FB035522
:101050002268A36811685B1A1179DBB2994200D249
:1010600013710020FFF7A4FE284638BD0025F8E7DD
:1010700044B8000038B50C46054620B90E4940F288
:101080004710FFF741FF24B90B494FF4A470FFF755
:101090003BFF0020FFF77CFE2A681368591C116093
:1010A000E968641A298AB4FBF1F41C70BDE8384081
:1010B0000020FFF77DBE00BF44B800001FB50378D5
:1010C0008DF800304368019383688DF80830C36859
:1010D000054A0393054B684653F8213052F8211016
:1010E000984705B05DF804FB880B0020900B0020AA
:1010F0001FB503788DF800304368019383688DF83D
:101100000830C368054A0393054B684653F82130FD
:1011100052F82110984705B05DF804FB880B0020B9
:10112000900B0020F0B5194B90F800C0DFF86CE090
:1011300043F82C20164B16460A6943F82C204B7FA7
:101140000EF80C300C4607460FCC89B06D460FC523
:1011500094E80F0085E80F003B78CDF810C01EF82A
:1011600003304BB1002E0B4A694608BF3246381D8A
:1011700002F074F909B0F0BD002E074A694608BFB5
:10118000324607F10C0001F039FEF3E7900B002026
:10119000880B0020BD100000F1100000980B00200B
:1011A00010B5044618B906493120FFF7ADFEA26814
:1011B0002AB163692168206998470023A36010BDA4
:1011C0009AB800000EB433B5059D044618B911490C
:1011D0004220FFF799FE63691BB90E494320FFF7D0
:1011E00093FE23681BB90B494420FFF78DFE63680B
:1011F0001BB908494520FFF787FE35B106AB01AAA8
:1012000029462046019300F071F802B0BDE8304055
:1012100003B070479AB80000826830B40468551C67
:101220008560A154D0E901329A4202D330BCFFF765
:10123000B7BF30BC704700002DE9F84F9846DDE994
:101240000A43154682460F460A464FF00109AA4254
:101250000FD2C14538BFC14613F0010B01D16CB9A3
:1012600000240126B8F1010F1BD908F1FF386E43A5
:10127000F8E709F10109B2FBF5F2E8E79B070ED5A3
:10128000B8F1000F0CBF30262026A145E9D2013C61
:1012900031465046FFF7C0FF002CF6D1E0E720268C
:1012A000F3E7B7FBF6F39D42E1D9DFF83C80B7FBEB
:1012B000F6F3504618F8031006FB1377FFF7ACFF60
:1012C0003346AB42B6FBF5F6F1D2BBF1000F02D0CC
:1012D0000CB1A14501D3BDE8F88F20215046013C57
:1012E000FFF79AFFF4E700BF2DB900002DE9F74F93
:1012F00088461746054620B9AF4940F25220FFF70D
:1013000003FE6B6923B9AC494FF41570FFF7FCFD80
:101310002B6823B9A84940F25520FFF7F5FD6B680B
:1013200023B9A54940F25620FFF7EEFDB8F1000FB2
:1013300000F03E8118F8011B49B92B7B002B00F00F
:101340003781284603B0BDE8F04FFFF729BF2529B4
:1013500040F0B780002698F800302D2B424608F167
:10136000010823D0302B24D02B2B25D000242A2B6E
:1013700002F1010123D13B681A1D3A601B680A463D
:101380001C4413782E2B26D101324FF0000A104650
:1013900010F8011BA1F1300CBCF1090F1DD80A2374
:1013A00003FB0A13A3F1300A0246F0E746F00106F8
:1013B000D1E746F00206CEE746F00406CBE711F887
:1013C000013CA3F130000928DBD80A2202FB0434D7
:1013D000303C0A46CBE74FF0000A12F8011B01F03F
:1013E000FB0068289046F8D0782909D86F290CD8D6
:1013F000632962D022D8252963D0582900F088803B
:1014000098F80030002B95D197E770390829F7D864
:1014100001A353F821F000BF8B1500000114000058
:10142000011400002115000001140000FF14000049
:10143000011400000114000011150000642901D0FE
:101440006929DDD13A68111D3960D2F8009089EA26
:10145000E972A2EBE9724FF0010B092A35DCD345A2
:1014600038BFD3462CB1B9F1000F01DB720700D5AC
:10147000013CB30702D5BAF1000F03D0F00701D445
:101480004CBB0024B9F1000F2DDAC9F100092D2160
:101490002846FFF7C1FE06F00302022A04D1BAF182
:1014A000000F01D11CBB0024CDE9004653460A229F
:1014B00049462846FFF7C0FEA2E73B681A1D3A607E
:1014C00019782846FFF7A8FE9AE70A230BF1010BCB
:1014D000B2FBF3F2C1E7A345D4D220212846013C58
:1014E000FFF79AFECCE77107D5D52B21D0E7A345AE
:1014F000DAD230212846013CFFF78EFED2E7396868
:10150000CDE900460A1D3A6053460A220968D0E731
:1015100039680A1D3A60CDE9004653461022F5E7C6
:101520003B681A1D3A6016F00106D3F8009024D1EA
:10153000B9F1000F03D0484602F022FD0646B4423E
:101540001DD809F1FF3919F8011F00293FF458AFE0
:101550002846FFF761FEF6E728460136FFF75CFEF6
:1015600019F806100029F7D1A642BFF449AF20218F
:101570002846013CFFF750FEF6E70026F0E7202161
:101580002846013CFFF748FED9E73B681A1D3A6040
:10159000302128461C68FFF73FFE78212846FFF7D8
:1015A0003BFE00220823CDE900322146102280E7CD
:1015B00003B0BDE8F08F00BFE0B80000F0B595B013
:1015C0001D46164608460C4600F01FFD1A9B0D935B
:1015D000CDE9086500252B46082205A920460A9575
:1015E0008DF82C500C9500F037FD079B0293069B5D
:1015F00003939DF814308DF8115003F00302012A73
:101600001DD1BDF81420059DC3F3C203C2F3831698
:101610008DF81030B20008230EA9204600F01CFD02
:10162000C5F3952508AB0093324602AB0EA92846B8
:1016300000F08CFB204600F0ECFC15B0F0BD022A57
:10164000F8D1BDF81650C3F3C203C5F389158DF860
:1016500010300827082D2E4628BF08263B46324664
:101660000EA9204600F0F8FCAD1B08AB02AA3146DB
:101670000EA8374400F0CEFB002DEBD1DAE70000D6
:1016800008B5FFF7BFF80748042100F0C1FA0028A9
:1016900003DA05494820FFF737FC044B01225A7151
:1016A00008BD00BF8CC600003DB90000140000203A
:1016B000037813F0040216D003F00303012B03D0C8
:1016C000022B09D0012070470A6800880232C0F35B
:1016D000831002440A60F5E70B684288023303EB8B
:1016E00092130B60EEE71046704700002DE9F04FB3
:1016F000DFF838A10F4687B00446861C0020154647
:10170000FFF746FBDAF800103960DAE901321344DA
:1017100001335B1A0AF21C470AF583690AF214487E
:10172000B3421BD30020002D7AD004F00F039B019D
:1017300043F0050363F30F00DAF80020DAF808300D
:101740001340033332444AF823000020CAF8002033
:10175000FFF72EFB012007B0BDE8F08F01213846CE
:10176000FFF702FC4846FFF717FC4046FFF714FC62
:10177000DAF80400DAF808B0029000EA0B0003304F
:101780000AEB800002A9FFF793FF029B0246F8B91B
:101790000BEA03010AEB810103F1020CC868039014
:1017A000013303EA0B0B0AEB8B0B00F0030001285B
:1017B000DBF80C10CDF808C02AD002280BD01A494B
:1017C00001924FF4BF70FFF79FFB019A93460CE024
:1017D0000BEA0300D3E7BDF80E30C3F389130333DC
:1017E0004FEA114B0CEB930302934046FFF7D7FBF4
:1017F00010B1029BCAF8043059463846FFF7B4FBD3
:10180000DAE901231344DAF8002001339B1A87E751
:10181000BDF80C30C3F383134FEA114B6344E3E785
:10182000A40544F0060087E7ADB900006C0C002069
:101830000B4B0C48FF2210B59A600022C3F8182405
:10184000C3E90022C3F81424012283F8202400F005
:1018500095FB044610B9044800F012FC204610BD68
:101860006C0C002078C600001CBA000030B50A4C91
:1018700071B10A4A0A49121BD20800239A4201D1C7
:10188000002030BD31F82350854202D00133F5E706
:10189000034654F83300F4E708C6000078C6000099
:1018A000E0090020094B013903EBC000032909D8E6
:1018B000DFE801F00A02040604207047007970474F
:1018C00040797047002070470220704708C600002A
:1018D000034BD3E90030C31A58425841704700BF48
:1018E0006C0C00202DE9F04385B0FFF7F1FF0646B0
:1018F000002840F0FA807E4CC4F81804BFF34F8FE4
:101900006368A56800932B40033304EB83006946AA
:10191000FFF7CEFE009B18B1D4F81824002A62D03D
:1019200005EA0302991C013304EB82022B4004EB0D
:101930008303D268DB68029302F00303022B019257
:10194000009163D1BDF806306A48C3F38917502F60
:10195000B84628BF4FF0500808F1080168F38F130C
:10196000C1F30901ADF8063000F020FB064600285F
:1019700000F0A68000F049FB0023082201A93046B0
:1019800000F056FB009925EA01020132B8EB820F04
:101990004FEA820333D95FFA88F863B32940DDB296
:1019A000A8EB050803315FFA88F9A846524D04EB0D
:1019B000810108234246304600F03AFB3DB108F170
:1019C0000803DBB24A462946304600F031FB009B53
:1019D000033703EB97070097D4F81834002B4BD14B
:1019E000D4F810545BE0226893428CD36260304696
:1019F00005B0BDE8F08340491D469946D9E7294026
:101A000003310823424604EB8101DDE7012B57D166
:101A1000BDF804303748C3F38311062928BF0621D7
:101A200061F38913023101F00F018900ADF8043030
:101A300000F0BCFA0646002842D000F0E6FA002387
:101A4000082201A9304600F0F3FA0027BDF804206F
:101A5000C2F38312BB00974203F10803BCD2009982
:101A60004A1C29400331009204EB810104223046D4
:101A700000F0DEFA0137E9E7304600F0CAFAFFF776
:101A800027FF80F00100C6B2B1E7EB685B7923B1B4
:101A90002B6831461B6828469847EB681D68002D67
:101AA000F3D1304600F0B5FA2846FFF771F9D4F8C3
:101AB00018340BB9009B63600020FFF779F9DEE76B
:101AC000D4F8104454B90D4B0D480E49C01AC00843
:101AD000000440F0020000F073F8D0E723682046CD
:101AE0009B689847E3681C68ECE700267FE700BF27
:101AF0006C0C002078C60000780C002008C600009E
:101B000058C6000004BA00002DE9F74F274E0446DE
:101B10000F46914601A901221846D6F808A098461A
:101B2000FFF7E4FD78B3019D0023A81C434503EBB8
:101B3000000132D100211E48FFF7F3F94FEA1449A2
:101B400080F3100B1B4B1C4A9B1AB9EBD30F04D329
:101B50001A4940F2A310FFF7D7F96B1C03EA0A03F6
:101B6000E40006EB830304F0380449EA0B4005EA7D
:101B70000A0544F00104D860033544EA881343EAB7
:101B8000872346F8253096F820341BB1FFF7AAFECC
:101B90000028FBD103B0BDE8F08F0AEA010106EB93
:101BA000810159F82320CA600133BFE76C0C002083
:101BB0008810002078C6000008C60000ADB90000FB
:101BC00000231A46FFF7A0BF07B50123019201AA1F
:101BD000FFF79AFF03B05DF804FB1FB5CDE90123C1
:101BE000069B039301AA0323FFF78EFF05B05DF860
:101BF00004FB1FB5CDE90023069B0293079B0393CB
:101C00006A460423FFF780FF05B05DF804FB00007F
:101C100030B51349D1F810440346002022464AB992
:101C2000DC682071D1F8104454B9C1F81034DB6875
:101C30001A6030BDD268157985420AD01268EEE785
:101C4000E468DA6824681460D1F81024D26813605C
:101C5000EFE701300A28E1D14FF0FF30E9E700BF9C
:101C60006C0C002038B5084B0125D3F8104483F8DC
:101C7000205404B938BDE3685D71236820465B6871
:101C80009847E3681C68F4E76C0C002030B5C38803
:101C900085B004460D4633B1144A00921449154AE2
:101CA0002846FFF78FFA217A05291DD0637A4BB1B8
:101CB000A088FFF7F7FD104B104953F82020284665
:101CC000FFF780FA227A0E4BA08853F82220039265
:101CD0000021FFF7CBFD039A0A490346284605B0C9
:101CE000BDE83040FFF76EBA05B030BD48BA00001D
:101CF00030BA000028BA0000B4BA00004DBA0000A3
:101D0000D8BA000050BA000007B503460846197A51
:101D1000052911D05B7A2BB1094A0A490190FFF7D6
:101D200051FA019808490190FFF74CFA019803B065
:101D30005DF804EBFFF734BA002AF8D0F2E700BFF1
:101D400048BA00004DBA000045BA00002DE9F04342
:101D500085B01F460C9D002395F80C902B7306460A
:101D60000C46904629463846FFF790FFB8F1060F1B
:101D700009D8DFE808F00412181F28334000314664
:101D80002846FFF71FFA002229463846FFF7BCFF16
:101D900085F80C9005B0BDE8F083226831462846EE
:101DA000FFF710FAEFE7D4E9002331462846FFF7A2
:101DB00009FAE8E7A36800933146D4E900232846EE
:101DC000FFF700FADFE7E3680193A3680093314669
:101DD000D4E900232846FFF7F5F9D4E723690293F5
:101DE000E3680193A36800933146D4E900232846B1
:101DF000FFF7E8F9C7E76369039323690293E36890
:101E00000193A36800933146D4E900232846FFF7E5
:101E1000D9F9B8E708292DE9F84F80460E4617464C
:101E20001C463DD8002593F80C901D7319461046AA
:101E3000FFF72CFFDFF890A0DFF890B0AE4231D969
:101E400018F8052059462046FFF7BCF90135082D42
:101E5000F4D11A491A4DDFF878A02046FFF7B2F9FD
:101E60004FF0000B5E4524D918F80B207E2A1ED8AF
:101E7000511C144BC9B2C95C11F0970F08BF2E2238
:101E800051462046FFF79EF90BF1010BBBF1080FFD
:101E9000E8D1012221463846FFF736FF84F80C903E
:101EA000BDE8F88F51462046FFF78CF9CEE72E2289
:101EB000E6E729462046FFF785F9E5E764BA000022
:101EC00062BA00004CC2000060BA00005ABA0000BA
:101ED00066BA00002DE9F74F99469DF8303000931F
:101EE00088469346064618B92349B620FFF70CF8F2
:101EF000F28871794A43043A4A4505D81E4901924D
:101F0000C420FFF701F8019ADBF80070B6F806A0CC
:101F100007EB0901914209F1040488BFA2EB09070C
:101F2000B4FBFAF5CBF800700AFB154445B9AAEBEF
:101F3000040BBB4528BFBB462FB903B0BDE8F08FEB
:101F40003668013DF2E7009B043408EB0500344499
:101F50005A466BB12146A7EB0B0701F029FEBA45A3
:101F60005D443668D3464FF0000428BFBB46E3E724
:101F700001462046EFE700BFECBA0000FFF712B8B9
:101F8000F8B546790146721E0546002393422D6836
:101F900003D30024A64202D8F8BD0133F6E70F6848
:101FA0002846FFF767F801343946F3E72DE9F8438F
:101FB000CD1C068A0746FFF733F8043E3544044635
:101FC000B5FBF6F5F0B14FF48073EDB28380C680B7
:101FD000013D076081464FF00008A84512D23846FF
:101FE000FFF71EF8064648B163790133637108F1C3
:101FF0000108C9F8000007608146EEE72046FFF7B8
:10200000BFFF34462046BDE8F88301210430FEF7C7
:10201000ABBF10B5012104460430FEF7B1FFC0B2DA
:1020200020B92046BDE81040FFF7AABF10BD000050
:102030001FB5144603920022009203AAFFF74AFF3D
:10204000039BA34203D00349F620FEF75DFF04B0D3
:1020500010BD00BFECBA00001FB514460392012268
:10206000009203AAFFF736FF039BA34204D0034963
:102070004FF48070FEF748FF04B010BDECBA0000CA
:10208000826800239360826813618268536182686A
:10209000D3608268536082681360704710B50D4941
:1020A000A1F58C72914201D800200FE08C1AE30F49
:1020B00003EBE4035B1002EBC30452F833308342BA
:1020C00005D802D204F10802ECE7606810BD214691
:1020D000E8E700BF04C0000008B5FFF7DFFF024BD0
:1020E000002808BF184608BDD6BE000007B54FF04F
:1020F0008043D3F8002162B10020C3F80001D3F877
:1021000000210092009A0122C3F808230D4B1B689E
:1021100098474FF08043D3F8042182B10022C3F8DE
:102120000421D3F804210192019A0222C3F8082362
:10213000044B1B68012003B05DF804EB184703B0A3
:102140005DF804FB2811002000F1804000F5C0403C
:10215000002382B0036003680193019B02B07047C3
:10216000C208012300F0070003FA00F08B5C18435B
:102170008854704710B50368292B044604D90749D1
:1021800040F2CD10FEF7C0FE23681F2B83BF03F083
:102190001F03034823604FF0A04010BDACAF000008
:1021A0000003005013B5019001A80C46FFF7E2FFB1
:1021B000019B00EB8300D0F8003723F44033C0F8D4
:1021C0000037D0F8003743EA0443C0F8003702B0C4
:1021D00010BD00004FF0A043D3F810350360024B50
:1021E000D3F8103543607047000300502DE9F04FDD
:1021F00000248BB0CDE90244604D4FF48072012180
:1022000002F1804303F5C04390B21B68012B06D155
:10221000D5F804330B4202D0FFF796FF0C4304328B
:10222000B2F5907F4FEA4101EAD1544BD3F87C31AB
:10223000012B08D14FF4BE70FFF786FF02A844F0CF
:102240000044FFF7C7FFE3B2D3B14D4F002501268D
:10225000344210D0AB0003F1804303F5C043D3F800
:102260001005D3F8101557F8253023B1C1F30141FB
:10227000C0F3052098470135082D4FEA4606E7D1FF
:10228000002C78DA0023CDE904334FF0FF33CDE999
:102290000633DFF8ECA03B4B019300263546019B4B
:1022A00013F9014B0193631C4FD0C4F3C207012201
:1022B000E3B204F03F0B04F0070402FA04F407F160
:1022C00028020DEB020717F8101C21423DD00AEB43
:1022D0000B014FEA931991F930105AF82180B8F1A7
:1022E000000F07D1B9F1030F2FD104A95846FFF70A
:1022F00037FF02E0B9F1030FF7D008A8CDF820B0FE
:10230000FFF738FF089901F5E07150F8211017F830
:10231000200C2042C1F3014106D0022915D1B9F1A8
:10232000030F0CD1494605E003290ED1B9F1030F83
:1023300005D102215846FFF735FF0135EDB2B8F15E
:10234000000F02D049465846C0470136042EA6D198
:102350008DB108A8FFF73EFF029B089A9A42099B9D
:1023600002D103998B4206D002920393049A059BF3
:10237000069207938FE70BB0BDE8F08F0060004036
:10238000301100208A11002010B5054C23681BB9BC
:1023900004495120FEF7B8FD2368BDE810401847F6
:1023A0009811002011C0000038B50D4628B90C491D
:1023B0007720FEF7A9FD002038BD0A4B9842FAD1DC
:1023C0000020FEF7E5FC084B1C7914B901221D60C2
:1023D0001A710020FEF7ECFC002CECD01120EBE78A
:1023E00011C00000002000409811002018B90649D3
:1023F0009B20FEF789BD054B984201BF044B00228C
:102400001A601A71704700BF11C000000020004020
:10241000981100200023435082B043580193019B40
:1024200002B0704710B52148D0F810315BB14FF4BD
:102430008871FFF7EFFF1E4B5A79510703D51B68D0
:102440000BB1012098471948D0F814315BB14FF413
:102450008A71FFF7DFFF164B5A79120703D51B6805
:102460000BB1022098471148D0F81C315BB14FF4F2
:102470008E71FFF7CFFF0E4B587910F0100002D18C
:102480001B6803B198470948D0F8043163B14FF491
:102490008271FFF7BFFF064B01221A711B681BB147
:1024A000BDE810400320184710BD00BF00C0014028
:1024B000A011002000F1804000F5E040002382B030
:1024C000036003680193019B02B07047F0B5524B63
:1024D000524CD3F8043185B0002B3DD094F82E2017
:1024E0004FF48270FFF7E6FF2AB394F82F3013BB46
:1024F000494AD2F80031002B32D04FF48070FFF7F8
:10250000D9FF638B94F82D00834250D921891B1A7F
:102510009BB289B26383CB1A616801EB4303C2F8B3
:102520002C36C2F830064FF48270FFF7C3FF3A4BE7
:1025300001225A6014E0636802932389ADF80C30DD
:10254000E36800218DF8041033BB2374236801A8CD
:102550009847002384F82F3094F82E30002BC7D1F1
:102560002D4BD3F810315BB14FF48870FFF7A2FF09
:102570000023237402238DF8043001A823689847B0
:10258000254BD3F81431EBB14FF48A70FFF792FF6B
:102590000023237405B0F0BD208B6083636020812D
:1025A000E160002AD2D11C4B01221A60CEE7BAD1D9
:1025B000E368012184F82F1013B100216183AEE795
:1025C0006383B0E766694FF000470125002EE1D034
:1025D000B6FA86F227FA02F34632920026EA03069A
:1025E00002F1804303F5E0431B68002BEED0104658
:1025F000A2F58C72FFF75EFFD30882F00402C2F3EB
:1026000080028DF808308DF8045023688DF8092079
:1026100001A89847DAE700BF00700040A811002029
:1026200070B50E46054618B92749D620FEF76CFC52
:102630001EB92549D720FEF767FC244C94F82C30AE
:10264000002B3FD1224A29782660C2F8F01569781C
:10265000C2F8F415E97884F82E10237484F82D302C
:10266000636184F82F3001216FF0004384F82C104F
:102670004FF48270C2F80833FFF71CFF4FF48070EC
:10268000FFF718FF4FF48A70FFF714FFAD78072D9E
:1026900003D910496B20FEF737FC0F4B6D01EDB2EB
:1026A00083F8075380221A60094B0222C3F80423DF
:1026B00094F82E10012209B1C3F80423C3F80025B1
:1026C000002070BD0820FCE768C00000A8110020B1
:1026D00000700040B5C0000000E100E070B53D4E64
:1026E00096F82C3004460D4623B93B4940F223109E
:1026F000FEF70AFC072C04D937494FF49270FEF715
:1027000003FC364BD3F8F435DBB23BB196F82D30F1
:1027100023B131494FF49370FEF7F6FBEB79013B9F
:10272000082B04D92C494FF49470FEF7EDFB2B7A5B
:10273000092B04D928494FF49570FEF7E5FB337C4B
:10274000002B45D104F10C0206EB42031B7923B99F
:1027500096F82D30013386F82D3006EB4206EB79E2
:1027600033712B7AAA7873716B7812021B0102F411
:10277000E06203F0300313432A7802F003021343AC
:10278000EA78120302F4805213432A79120402F405
:10279000E02213436A79120502F480121343AA79E6
:1027A000120602F080721343220102F1804202F508
:1027B000E042240104F18044C2F8183504F5E044F5
:1027C000EB792A7AC4F814250020C4F8103570BDBE
:1027D0001120FCE7A811002068C000000070004034
:1027E00070B5364C227C02F0FF03002A63D1344AD4
:1027F000012503262574C2F80863C2F82C16C2F816
:10280000305694F82D20AA420CD919461A0102F12B
:10281000804202F5E0420133082BC2F81415C2F8D9
:102820001015F3D100F10C03000104EB430300F198
:10283000804000F5E0401A795B79C0F81435C0F8A3
:1028400010251F4A01231360536042F21073D2F81F
:10285000041131B9013BFAD11A4940F29B10FEF73D
:1028600053FB4FF48070FFF725FE4FF48270FFF7A3
:1028700021FE94F82D30012B11D9104900221301AB
:1028800003F1804303F5E0430132087F4D7FC3F835
:102890001455082AC3F8100501F10201EFD194F88C
:1028A0002E20074B2AB103220020C3F804232074F2
:1028B00070BD0222F8E71120FAE700BFA81100203E
:1028C0000070004068C0000010B50368292B044662
:1028D00004D9074940F2CD10FEF716FB23681F2BE1
:1028E00083BF03F01F03034823604FF0A04010BDD7
:1028F000ACAF00000003005007B5019001A8FFF73E
:10290000E3FF019A01239340C0F80C3503B05DF852
:1029100004FB07B5019001A8FFF7D6FF019A012338
:102920009340C0F8083503B05DF804FB13B5144BB1
:10293000D3F8182112B30022C3F81821D3F81831A4
:10294000104C0193019B236823B90F494FF4277062
:10295000FEF7DAFAE07FFF2803D0A37F5BB1FFF731
:10296000CBFF002363772372D4E90031074802B01C
:10297000BDE810401847FFF7CCFFF2E702B010BDEA
:1029800000300240D8110020FFC00000E0110020FC
:102990002DE9F743002406460F4600F5A0754FF4D5
:1029A0008038A1462B688BB1D6F8043308FA04F2BC
:1029B0001A420BD0C5F800902B680193019BA3002D
:1029C00003F5A07398B2D7E9003198470134042C7D
:1029D00005F10405E6D103B0BDE8F08301490248E2
:1029E000FFF7D6BFFC1100200080004001490248DB
:1029F000FFF7CEBF08120020009000400023435094
:102A000082B043580193019B02B070470B7B032BAC
:102A10002DD8DFE803F025291D028A68154B9A425C
:102A200004D1D0F84C350A699A4209D18A6840F23B
:102A300002239A421BD1D0F84C354A699A4216D0EB
:102A400000230622C0F80035C0F80025184670475C
:102A5000D0F84C350A699A42F2D1D0F83C35ECE70F
:102A6000D0F84C350A69E9E7D0F83C35FAE701209F
:102A7000704700BF00020400F0B50B6887B0054640
:102A80000C4623B9484940F28620FEF73DFAD5F8B6
:102A90002431B3B14FF492712846FFF7AFFFD5F858
:102AA000043173B9A368C5F808330223A360A3688F
:102AB000C5F8043301232B626B6184F82E3007B014
:102AC000F0BDD5F804316BB34FF48271284604F1A0
:102AD0000C07FFF793FF0FCF01AE0FC63B683360C3
:102AE00094F82E303BB921462846FFF78FFF80F03F
:102AF000010084F82E004FF4B0712846FFF77EFFE6
:102B00004FF4AE71FFF77AFF94F8303013B194F8B8
:102B10002E30CBB10023C5F80032A360234BC5F89B
:102B2000083311E04FF4A4712846FFF767FF237BB9
:102B3000EBB904F10C070FCF01AE0FC63B68336051
:102B400094F83030002BE6D0D5F8C434C5F8C4343E
:102B50009A071ED501238DF8003094F830300BB958
:102B600084F82F30D4E9003168469847A7E74FF43E
:102B70000073C5F8003240F20223A36003F1CE7364
:102B8000C5F80833A368C5F804330123AB602B6292
:102B900095E713F0050F01D00223DCE794F82E30FF
:102BA000002BD8D00423D6E756C1000002029C01B6
:102BB00001490248FFF760BF1412002000300040B6
:102BC00002494FF04020FFF757BF00BF48120020D6
:102BD0000023435082B043580193019B02B07047D9
:102BE0000A4610B54FF48E71FFF7F2FF136A916831
:102BF000C95C136A01331362C0F81C1510BD08B517
:102C000002464FF492710068FFF7E2FF10684FF43C
:102C10008471FFF7DDFF136801221A6008BD000010
:102C200010B50368292B044604D9074940F2CD109A
:102C3000FEF76AF923681F2B83BF03F01F030348C5
:102C400023604FF0A04010BDACAF00000003005067
:102C500007B5019001A8FFF7E3FF019B03F5E073BF
:102C6000022240F8232003B05DF804FB10B58B6905
:102C70000A464FF4847123B9FFF7AAFFD0F818353C
:102C800010BDFFF7A5FF536AD168D0F81805C854E6
:102C9000536A01335362F3E71FB501238DF8003007
:102CA000044BCDE90110D3E900126846904705B006
:102CB0005DF804FB7C12002030B54E4DD5F804338E
:102CC0009A0585B051D5D5F82431002B4DD04FF45D
:102CD00092712846FFF77CFF4FF40173C5F8083363
:102CE000454B93F829200AB901226A604149022222
:102CF0008DF80020D1F88024C1F8802403929A69CD
:102D00000292DA6801920022C3E906226846D3E9FA
:102D1000001290473748D0F81C315BB1364A5169F0
:102D2000136A99424ED992F82830002B4AD11146A5
:102D3000FFF756FF2F48D0F84431002B57D04FF4FF
:102D4000A271FFF745FF2C4B93F829200AB101220D
:102D500002609A69002A4AD0586AD96800229A61AA
:102D600005B0BDE83040FFF797BFD5F804335B07E7
:102D7000D0D5D5F80831002BCCD01F4C1D482146AA
:102D8000FFF774FF636AA2699A42C3D1E36953B142
:102D9000A3612369E168E3600023606AE361636221
:102DA000FFF77AFFB6E794F829300BB901236B607F
:102DB000104B4FF40172C3F808230023606AE168E6
:102DC000A361EDE70B484FF48E71FFF701FF5369E4
:102DD000002BAFD051690291002391688DF800302B
:102DE000019153616846D2E900139847A2E705B004
:102DF00030BD00BF002000407C1200202DE9F347C9
:102E0000054691460C4619B96D49AA20FEF77CF893
:102E100095F804806B4E2C2303FB086393F82A304B
:102E2000002B40F0C98068492868FFF7BDFA0746C3
:102E3000002840F0C38023685A1C14D001A80193D5
:102E4000FFF7EEFE019B012202FA03F3C0F80835FA
:102E50002368019301A8FFF7E3FE019B03F5E073EC
:102E6000032240F823206368581C09D001A801936D
:102E7000FFF7D6FE019B03F5E073002240F8232004
:102E80002B68A269C3F82425217D637D2A680B4342
:102E9000C2F86C35D4E900122B68C3F81425C3F8C6
:102EA0000C15237D012B2BD1A368591C09D001A837
:102EB0000193FFF7B5FE019B03F5E073002240F894
:102EC0002320E3685A1C14D001A80193FFF7A8FE41
:102ED000019B012202FA03F3C0F80835E36801936D
:102EE00001A8FFF79DFE019B03F5E073032240F864
:102EF0002320D4E902122B68C3F80825C3F8101563
:102F00002C2303FB08F3F218C2F804902269F25054
:102F1000B9F1000F3CD0286894F81C902B4A4FF46C
:102F20008E71FFF755FE28684FF4A271FFF750FE2F
:102F30002B68C3F804232C68B9F1070F4FEA143A41
:102F400044F3073403D922496B20FDF7DDFF002C41
:102F5000AEBF04F160431F4B0AF00F0A4FEA491954
:102F6000A8BF03F561435FFA89F9B4BF03F80A907B
:102F700083F800932B681A0B43F30733002B07DB0E
:102F800002F01F0101228A405B09134941F8232006
:102F90002B680422C3F800252C2303FB08630022BE
:102FA000C3E9062283F829205A61012283F82A20E6
:102FB000384602B0BDE8F0870827F9E71127F7E7A0
:102FC000A7C100007C120020B92C00008000020084
:102FD000B5C0000014ED00E000E100E02DE9F84389
:102FE000036806792A4D0022C3F800252C2303FB31
:102FF000065304465B68B3B10368264AC3F8082346
:1030000003681A0B43F30733002B0CDB02F01F019C
:103010005B0901228A4020331F4941F82320BFF376
:103020004F8FBFF36F8F23684FF0FF32D3F80C053B
:10303000D3F81495D3F80875D3F81085C3F8142580
:10304000C3F80C2523689042C3F80825C3F810255F
:1030500001D0FFF7FDFDB9F1FF3F02D04846FFF771
:10306000F7FDB8F1FF3F02D04046FFF7F1FD7B1CB2
:1030700002D03846FFF7ECFD2068FFF7B7F92C23A4
:1030800003FB0655002385F82A306B60BDE8F88302
:103090007C1200208402020000E100E00279044B6F
:1030A0002C2101FB02335869003818BF01207047FA
:1030B0007C1200202DE9F84F344F90F804802C2327
:1030C00003FB0873064693F82A30012B8946924683
:1030D00004D02F494FF48C70FDF716FFB9F1000FA3
:1030E00004D12B4940F21910FDF70EFFBAF1000F81
:1030F00004D127494FF48D70FDF706FF3046FFF7E6
:10310000CDFF044600283CD12C2508FB057B4FF45D
:103110008E71CBF814A0CBF80890CBF820008BF878
:1031200028003068FFF754FD336801229A60306848
:103130005946FFF755FDDBF804305D461BBB306890
:10314000DBF814402B6A9C4211D83368D3F81C2159
:10315000002AFBD00122DA6000202C2303FB087731
:1031600000237B61BDE8F88F95F828303BB9D0F893
:103170001C31002BF8D05946FFF732FDE2E70F2053
:10318000EBE71120EEE72046ECE700BF7C120020C1
:10319000A7C100002DE9F047494C07792C2303FB18
:1031A0000743064693F82A30012B8846154604D07B
:1031B00044494FF4B670FDF7A7FEB8F1000F04D1F3
:1031C000404940F26D10FDF79FFE25B93D494FF48F
:1031D000B770FDF799FE2C2303FB07435A6822B111
:1031E00033684FF40171C3F808132C2303FB074322
:1031F000986950B1D969002942D022B133684FF49F
:103200000172C3F80423112537E09D61C3F80C80D7
:103210005862D8612C2303FB074393F829301BB96C
:1032200010B93046FFF7EBFC4FF02C0808FB074ABB
:103230003068DAF80430002B38D14FF4A271D04650
:10324000FFF7C6FC3068D0F82491D0F80831D0F8E8
:103250004451D3B915B9B9F1000FF3D02C2303FBB6
:1032600007440023A361B9F1000F25D135BB94F8C1
:10327000291033680122B9B11A602846BDE8F087E9
:10328000C3F81080DD610120C4E7B9F1000FE5D17A
:10329000002DE3D14146FFF7E9FCDAF82430DAF8F3
:1032A00018209A42CED8D9E75A60E6E74FF4017366
:1032B000C0F804330025E0E70325DEE70F25DCE74F
:1032C0007C120020A7C100000023435082B0435865
:1032D0000193019B02B0704710B50368292B044687
:1032E00004D9074940F2CD10FDF70EFE23681F2BCD
:1032F00083BF03F01F03034823604FF0A04010BDBD
:10330000ACAF00000003005007B5019001A8FFF723
:10331000E3FF019B03F5E073022240F8232003B092
:103320005DF804FB1FB501238DF80030044BCDE997
:103330000110D3E900126846904705B05DF804FB20
:10334000A81200207FB5434AD2F82461002E60D035
:1033500010464FF49271FFF7B7FF02238DF800304B
:10336000D2F88034C2F880340393D2F83C3502930B
:10337000394BDA6801920022C3E906226846D3E994
:10338000001290473348D0F8443173B14FF4A27122
:10339000FFF79AFF304B9A693AB10022C3E906223F
:1033A000D968D0F83C05FFF7BDFF2A48D0F8203196
:1033B000ABB14FF49071FFF787FF0123C360264B39
:1033C0005A6962B1D0F84C150291002299688DF8C3
:1033D000002001915A616846D3E9001290471D48C8
:1033E000D0F858319BB14FF4AC71FFF76DFF1A4B19
:1033F0005A6962B1D0F84C150291002299688DF893
:10340000002001915A616846D3E90012904704B048
:1034100070BDD2F81031002BB4D04FF48871104633
:10342000FFF752FF0C4BD2F83C0599698842A9D1AD
:10343000DC69D96864B1D2F8005225F02005C2F8E1
:1034400000521A699C61DA60DE61FFF76BFF99E751
:103450009C61FAE700200040A81200202DE9F34704
:10346000054691460C4619B97349CF20FDF74CFD2E
:1034700095F80480714E242303FB086393F82030F1
:10348000002B40F0D4806E492868FEF78DFF074678
:10349000002840F0CE8023685A1C13D001A8019365
:1034A000FFF71AFF019A01239340C0F808352368FB
:1034B000019301A8FFF710FF019B03F5E0730322BE
:1034C00040F823206368581C09D001A80193FFF736
:1034D00003FF019B03F5E073002240F823202B68D3
:1034E000A269C3F82425217D637D2A680B43C2F8B5
:1034F0006C35D4E900122B68C3F80C15C3F81425F9
:10350000237D012B2AD1A368591C09D001A801935E
:10351000FFF7E2FE019B03F5E073002240F8232051
:10352000E3685A1C13D001A80193FFF7D5FE019A56
:1035300001239340C0F80835E368019301A8FFF721
:10354000CBFE019B03F5E073032240F82320D4E96E
:1035500002212B68C3F80815C3F81025242303FBA8
:1035600008F3F218C2F804902269F250B9F1000F82
:103570004BD0286894F81C90324A4FF48871FFF7BA
:10358000A3FE28684FF49071FFF79EFE28684FF461
:103590009271FFF799FE28684FF4A271FFF794FE2D
:1035A00028684FF4AC71FFF78FFE2B68C3F8042333
:1035B0002C68B9F1070F4FEA143A44F3073403D9E2
:1035C00021496B20FDF7A0FC002CAEBF04F1604345
:1035D0001E4B0AF00F0A4FEA4919A8BF03F56143D1
:1035E0005FFA89F9B4BF03F80A9083F800932B6857
:1035F0001A0B43F30733002B07DB02F01F010122F4
:103600008A405B09124941F823202B680822C3F83D
:103610000025242303FB08660023C6E906337361F3
:10362000012386F82030384602B0BDE8F08708272D
:10363000F9E71127F7E700BFF8C10000A812002042
:103640004533000010034200B5C0000014ED00E057
:1036500000E100E02DE9F843364D0679242303FB11
:10366000065304465B68B3B10368334AC3F80823C2
:1036700003681A0B43F30733002B0CDB02F01F0126
:103680005B0901228A4020332C4941F82320BFF3F3
:103690004F8FBFF36F8F2268D2F8003223F02003E0
:1036A000C2F80032236801225A6020684FF4AC71DE
:1036B000FFF70AFE2368DA602368D3F85821002A4E
:1036C000FBD00022C3F8002523684FF0FF32D3F867
:1036D0000C05D3F81495D3F80875D3F81085C3F802
:1036E0000C25C3F8142523689042C3F80825C3F8B5
:1036F000102501D0FFF708FEB9F1FF3F02D0484680
:10370000FFF702FEB8F1FF3F02D04046FFF7FCFD95
:103710007B1C02D03846FFF7F7FD2068FEF766FEF7
:10372000242303FB0655002385F820306B60BDE899
:10373000F88300BFA81200201003420000E100E05F
:103740000279044B242101FB02335869003818BF69
:1037500001207047A81200202DE9F047394F90F85A
:1037600004A0242303FB0A73054693F82030012BA1
:103770008846914604D0344940F22D10FDF7C4FB31
:10378000B8F1000F04D130494FF49770FDF7BCFB3E
:10379000B9F1000F04D12C4940F22F10FDF7B4FB12
:1037A0002B7913B9B9F5803F04D327494FF49870AA
:1037B000FDF7AAFB08F06043B3F1005F3CD1284657
:1037C000FFF7BEFF0446002838D1242606FB0A7600
:1037D0004FF49071C6F81490C6F808802868FFF777
:1037E00073FD4FF4AC712868FFF76EFD2B687269AA
:1037F000B168C3F84415C3F848252B6801229A60C4
:103800007368EBB92B68D3F82021D3F858011AB9A3
:103810000028F8D00F2008E00028FBD10122DA6050
:103820002A68D2F85831002BFBD0242303FB0A77F7
:1038300000237B61BDE8F0871020FBE71120F9E74A
:103840002046F7E7A8120020F8C100002DE9F0415A
:10385000484E0579242303FB0563044693F8203082
:10386000012B8846174604D043494FF4C070FDF73A
:103870004BFBB8F1000F04D13F4940F28110FDF736
:1038800043FB27B93C494FF4C170FDF73DFB237959
:1038900013B9B7F5803F04D3374940F28310FDF7E1
:1038A00033FB08F06043B3F1005F61D1242303FBD5
:1038B0000563596821B123684FF40472C3F80823E3
:1038C000242303FB05639A6952B1DA69002A3DD0CB
:1038D00021B123684FF40472C3F80423112033E0AC
:1038E0009F61C3F80C80DA6120684FF48871FFF79C
:1038F000EBFC20684FF4A271FFF7E6FC2368C3F8E5
:103900003485C3F8387523682ABB01221A602579EB
:103910002368242202FB056252681ABBD3F81011F7
:10392000D3F84421D3F82401114302D10028F5D063
:103930000A46242303FB05660023984218BF032090
:103940009A42B36118BF0F20BDE8F081C3F8108020
:10395000DF610122C8E7D3F8002242F02002C3F859
:103960000022D4E74FF40472C3F804230020EBE7ED
:103970001020E9E7A8120020F8C100004FF08053A2
:10398000D3F830210D2A03BFD3F83401B0FA80F008
:10399000400900207047000008B5FFF7EFFF40B175
:1039A0004FF080430022C3F80C21C3F81021C3F864
:1039B0003825FFF7E3FF002846D04FF080524D4BEB
:1039C000D2F80414C3F82015D2F80814C3F824154B
:1039D000D2F80C14C3F82815D2F81014C3F82C151B
:1039E000D2F81414C3F83015D2F81814C3F83415EB
:1039F000D2F81C14C3F84015D2F82014C3F84415AB
:103A0000D2F82414C3F84815D2F82814C3F84C157A
:103A1000D2F82C14C3F85015D2F83014C3F854154A
:103A2000D2F83414C3F86015D2F83814C3F864150A
:103A3000D2F83C14C3F86815D2F84014C3F86C15DA
:103A4000D2F84424C3F87025FFF798FF48B14FF02F
:103A50008043D3F80024D20744BF6FF00102C3F8BB
:103A60000024254AD2F8883043F47003C2F8883025
:103A7000BFF34F8FBFF36F8F4FF01023D3F80022A7
:103A8000002A03DBD3F80432002B2EDA1B4B012271
:103A9000C3F80425D3F80024002AFBD04FF01022ED
:103AA0001221C2F80012D3F80024002AFBD04FF0F4
:103AB00010231222C3F80422104BD3F80024002A4A
:103AC000FBD00022C3F80425D3F80024002AFBD041
:103AD000BFF34F8F08490A4BCA6802F4E0621343F0
:103AE000CB60BFF34F8F00BFFDE7064B064A1A605D
:103AF00008BD00BF00C0004000ED00E000E0014054
:103B00000400FA051C0000200090D0030649074A73
:103B1000074B9B1A03DD043BC858D050FBDCFFF772
:103B20003BFFFCF791FB0000A4C600000000002052
:103B3000E0090020FEE7FEE7FEE7FEE7FEE7FEE71E
:103B4000FEE7FEE7FEE7FEE708B50021044602F0C7
:103B500003F9044B1868C36B03B19847204606F07D
:103B60007BFB00BF50C3000070B50D4E0D4D761BA2
:103B7000B61006D0002455F8043B01349847A642FD
:103B8000F9D1094E094D761B07F0CEF9B61006D0D3
:103B9000002455F8043B01349847A642F9D170BD82
:103BA000D0090020D0090020DC090020D009002025
:103BB000844641EA000313F003036DD1403A41D338
:103BC00051F8043B40F8043B51F8043B40F8043BF7
:103BD00051F8043B40F8043B51F8043B40F8043BE7
:103BE00051F8043B40F8043B51F8043B40F8043BD7
:103BF00051F8043B40F8043B51F8043B40F8043BC7
:103C000051F8043B40F8043B51F8043B40F8043BB6
:103C100051F8043B40F8043B51F8043B40F8043BA6
:103C200051F8043B40F8043B51F8043B40F8043B96
:103C300051F8043B40F8043B51F8043B40F8043B86
:103C4000403ABDD2303211D351F8043B40F8043B26
:103C500051F8043B40F8043B51F8043B40F8043B66
:103C600051F8043B40F8043B103AEDD20C3205D336
:103C700051F8043B40F8043B043AF9D2043208D02E
:103C8000D2071CBF11F8013B00F8013B01D30B88A0
:103C900003806046704700BF082A13D38B078DD07E
:103CA00010F003038AD0C3F10403D21ADB071CBF50
:103CB00011F8013B00F8013B80D331F8023B20F8BA
:103CC000023B7BE7043AD9D3013A11F8013B00F8F3
:103CD000013BF9D20B7803704B7843708B7883707B
:103CE00060467047830730B548D0541E002A3FD045
:103CF000CAB2034601E0013C3AD303F8012B9D0709
:103D0000F9D1032C2DD9CDB245EA05250F2C45EA72
:103D1000054536D9A4F1100222F00F0C03F1200E54
:103D2000E6444FEA121C03F1100242E9045542E94D
:103D3000025510327245F8D10CF1010214F00C0F4B
:103D400003EB021204F00F0C13D0ACF1040323F0C8
:103D500003030433134442F8045B9342FBD10CF099
:103D600003042CB1CAB21C4403F8012B9C42FBD1C2
:103D700030BD64461346002CF4D1F9E703461446DF
:103D8000BFE71A46A446E0E70FB400B5074983B081
:103D900004AB086853F8042B8168019300F060F9C4
:103DA00003B05DF804EB04B0704700BF20000020B2
:103DB00000294FF480630CBF0222002200F000B8FB
:103DC0002DE9F043694CD4F8008083B004460E46D8
:103DD00017461D46B8F1000F03D0D8F83830002B35
:103DE00077D0022F05D0012F00F2AC80002DC0F259
:103DF000A980636EDA0752D52146404603F0E2F807
:103E0000216B41B104F14003994202D0404603F0D6
:103E100005FA00232363B4F90CC000231CF0800FC3
:103E2000A361636064D12CF44A6C2CF0030C022F64
:103E3000A4F80CC06AD001AB6A462146404603F0A4
:103E400093FBA3891843A081002D2FD0002E2ED0E4
:103E5000D8F83830002B38D0009B2660AB42B4F93C
:103E60000C301CBF43F40063A381012F04BF43F057
:103E70000103A3819AB213F00803C4E904652CD0AE
:103E8000D1075DD56D42A561656E002315F0010572
:103E9000A36027D00025284603B0BDE8F083A3899E
:103EA0009B05A9D4A06D03F0EBFAA5E7009D284679
:103EB00003F08AFB0646002847D0A38943F080031D
:103EC000A381D8F83830002BC6D1404603F0AEF8B5
:103ED000C2E7404603F0AAF883E7A360656E15F0D9
:103EE0000105D7D1930524D5284603B0BDE8F0835A
:103EF0002169404603F092F9B4F90CC02CF44A6CE5
:103F00002CF0030C022FA4F80CC094D10025002241
:103F100004F14303A2600122C4E904322360636E0A
:103F20004CF0020CD807A4F80CC0DDD41CF4007FC0
:103F3000DAD1A06D03F0A6FA284603B0BDE8F083FD
:103F4000A560CBE74FF0FF35CEE7DDF80090A9453F
:103F500004D0484603F038FB064620B9B4F90CC03B
:103F60004FF0FF35D3E74D46A7E700BF2000002004
:103F70000000000000000000000000000000000041
:103F800090F800F06DE9024520F007016FF0000C99
:103F900010F0070491F820F040F049804FF0000441
:103FA0006FF00700D1E9002391F840F000F108001C
:103FB00082FA4CF2A4FA8CF283FA4CF3A2FA8CF354
:103FC0004BBBD1E9022382FA4CF200F10800A4FABB
:103FD0008CF283FA4CF3A2FA8CF3E3B9D1E904230F
:103FE00082FA4CF200F10800A4FA8CF283FA4CF346
:103FF000A2FA8CF37BB9D1E9062301F1200182FA00
:104000004CF200F10800A4FA8CF283FA4CF3A2FA05
:104010008CF3002BC6D0002A04BF04301A4612BA13
:10402000B2FA82F2FDE8024500EBD2007047D1E916
:10403000002304F00305C4F100004FEAC50514F0A5
:10404000040F91F840F00CFA05F562EA05021CBF76
:1040500063EA050362464FF00004A9E70000000090
:104060002DE9F04F2DED0A8BCFB01C460AEE101A49
:1040700091460AEE900A054603F0FAF90368139395
:1040800018460994FFF77CFF12901DB1AB6B002B13
:1040900000F048821AEE102A536EDB0740F1478188
:1040A000B2F90C309AB2960409D41AEE101A43F4FD
:1040B00000538B819AB24B6E23F400534B66150765
:1040C00040F1CC801AEE103A1B69002B00F0C6803C
:1040D00002F01A030A2B00F0D2804D469FED9C7B24
:1040E0002B78002425AACDE92344CDE91544CDE958
:1040F00017448DED107B1AEE909A0E942292904602
:1041000014940694002B00F0B081AB4604E01BF839
:10411000013F002B00F0CD80252BF8D1BBEB05062D
:1041200040F0CB809BF80030002B00F09E810023F4
:104130004FF0FF329BF801708DF86B3005930BF157
:10414000010B04929A462B2420210BF1010BA7F1BD
:1041500020035A2B00F20081DFE813F00A03FE006F
:10416000FE000503FE00FE00FE006A00FE00FE00E9
:1041700076029E02FE008102A802FE00A3025B00FE
:104180005B005B005B005B005B005B005B005B0057
:10419000FE00FE00FE00FE00FE00FE00FE008E019E
:1041A000FE001602ED018E018E018E01FE00FE0062
:1041B000FE00FE000003FE00FE004502FE00FE00C1
:1041C000FE002002FE00C202FE00FE009907FE0073
:1041D000FE00FE00FE00FE00FE00FE00FE008E015E
:1041E000FE001602EF018E018E018E01E602EF0144
:1041F000E801FE00F302FE0086024702D402E80155
:10420000FE0020027D007507FE00FE007907FE001B
:104210007D00A7F1300300221BF8017B02EB820234
:1042200003EB4202A7F13003092BF5D905928EE783
:10423000484603F01DF9436817931846FFF7A0FEA0
:1042400018900646484603F013F983681593202119
:10425000002E40F0E9869BF8007076E71AEE101AFF
:104260001AEE900A1AEE105A01F002FD002841F0F1
:104270002783AA8902F01A030A2B7FF42EAF1AEEC5
:10428000101AB1F90E30002BFFF627AF4B6ED9078D
:1042900002D4920541F15A811AEE101A1AEE900AD0
:1042A00023464A464FB0BDEC0A8BBDE8F04F01F003
:1042B0009FBCBBEB050600F0D880249B33442493BD
:1042C000239B0133072BC8E90056239305DC08F133
:1042D0000808069B3344069324E71AEE101A22AA14
:1042E000484604F03DF990B90DF19408F1E71AEE53
:1042F000101A22AA484604F033F9002800F0A680DC
:10430000089B23B11AEE900A194602F087FF1AEEB5
:10431000102A536ED80740F1FA8093895A0601F1AA
:10432000D88206984FB0BDEC0A8BBDE8F08FB2F989
:104330000C309F059AB23FF5B6AE1AEE105AA86D32
:1043400003F09EF8B5F90C309AB2ACE6AFF30080FA
:104350000000000000000000002F00F08680002315
:104360008DF8D4708DF86B300122CDE907230392CC
:1043700004930C930F930D9335AD1AF002020A9239
:1043800002D0039A023203921AF084020B9205D1F2
:10439000059A0399561A002E00F36883249C8BB16A
:1043A000239B0DF16B0201330134C8F80020072B69
:1043B0004FF0010224942393C8F8042000F39F8354
:1043C00008F108080A9B83B1239B1BAA013302341E
:1043D000C8F80020072B4FF0020224942393C8F85A
:1043E000042000F3998308F108080B9B802B00F050
:1043F0006A82049B079A9E1A002E00F3AB821AF47D
:10440000807F40F00682079BC8F804301C44239B41
:10441000C8F800500133072B2494239300F3198329
:1044200008F108081AF0040F05D0059B039A9D1A9D
:10443000002D00F38583DDE9052303998A42ACBF93
:104440009B185B180693002C7FF451AF0023239335
:10445000089B1BB10899484602F0E0FE0DF1940854
:104460005D462B78002B7FF450AE249B002B41F04F
:104470001B82002323934AE7099B073323F007039A
:10448000B3EC027B8DED107BDDE91012099322F075
:1044900000430BEE101A0BEE903A4FF0FF32B0EEE5
:1044A0004B9AF0EE6B9AB74B51EC190B06F02CFBC4
:1044B000002840F0E884B34B51EC190B4FF0FF3269
:1044C00006F004FB002840F0DE84DDE91001002244
:1044D000002306F0F1FA002840F067879DF86B3062
:1044E000A94DAA4A2AF0800A0321472FC8BF1546C2
:1044F000002208920391079104920C920F920D9260
:10450000002B3FF43AAF039A0132039235E79389C7
:1045100099053FF503AF1AEE104A906D02F0B2FF15
:10452000A389FBE6284602F081FDB3E59BF8007005
:104530004AF0200A09E64AF0100A1AF0200F099BF7
:1045400000F04084073323F007031A465B6852F8F3
:10455000084B09921E46002BC0F24384049B013392
:1045600000F0BC822AF08003039354EA060340F073
:10457000B782049B002B40F0B882DDF80CA000232A
:10458000049307934EAD1FE1099A002352F8041BD0
:104590008DF86B308DF8D4100992E5E6099C54F83B
:1045A000045B00268DF86B60002D00F08F85049B66
:1045B0005A1C00F051861A463146284603F0C0FACC
:1045C0000890002801F02F81089B0496591B079141
:1045D00021EAE1719DF86B300994039108960C96DD
:1045E0000F960D968CE74AF0100A1AF0200600F09C
:1045F000C983099B073323F007035E6853F8084B10
:1046000009932AF480630393002300228DF86B2022
:10461000049A551C00F0C080039921F0800A54EAE6
:10462000060140F0B780002A40F00786002BA6D193
:10463000039B13F00103079300F0148430238DF8DB
:1046400037310DF23715BFE0099B53F8042B059263
:10465000002A80F2D583059A0993524205929BF86D
:1046600000704AF0040A70E51AF0200F40F0D1847F
:104670001AF0100F40F0E7851AF0400F40F0A986BD
:104680001AF4007F00F0DF85099B069953F8042B8C
:10469000099311705D46E4E69BF800708DF86B405D
:1046A00053E59BF800704AF0800A4EE55A4612F82E
:1046B000017B2A2F01F06F82A7F13003092B93466B
:1046C00098BF002201F2EC801BF8017B02EB820212
:1046D00003EB4202A7F13003092BF5D9049236E52A
:1046E0004AF010030393039B13F0200600F0598354
:1046F000099B073323F007035E6853F8084B0993BF
:10470000012382E7099B53F8044B099330234AF0B5
:10471000020278278DF86C301D4B149303928DF8AC
:104720006D700026022370E79BF80070682F03BFAE
:104730009BF801704AF4007A0BF1010B4AF0400A31
:1047400003E59BF800706C2F03BF9BF801704AF0E3
:10475000200A0BF1010B4AF0100AF6E49BF80070F6
:104760004AF0080AF1E49BF800704AF0010AECE410
:104770009DF86B30002B7FF46EAD9BF800708DF8C8
:104780006B10E2E4FFFFEF7F54C3000058C300004A
:1047900064C30000CDF80CA0012B00F0A181022B16
:1047A0004EAD20D1149A04F00F032409D35C05F810
:1047B000013D44EA0674360954EA0603F3D14EABD0
:1047C0005B1BDDF80CA00793049907989DF86B30EC
:1047D00081424FF00002B8BF0146089203910C924B
:1047E0000F920D928CE604F00703E40844EA467445
:1047F000F608303354EA06012A4605F8013DF2D1A5
:104800000399CC0700F175824EAB5B1B8A46079378
:10481000DAE7652F40F3D780DDE91001002200239D
:1048200006F040F9002800F0C681239BC14AC8F871
:104830000020013301340122072B24942393C8F86C
:10484000042000F3DE8408F108081C9B0E9A9342B2
:1048500080F2D182129B139A1C44C8E90023239B47
:1048600024940133072B239300F3228408F10808D2
:104870000E9B5D1E002D7FF7D5AD102D239B41F3C0
:104880006981AD4F0A97224610261AEE104A05E0BC
:1048900008F10808103D102D40F3C1840133103297
:1048A000072BC8E90076CDE92332F1DD22AA2146A3
:1048B000484603F055FE00287FF422ADDDE923329F
:1048C0000DF19408E6E7059B039A9E1A002E7FF7E8
:1048D00090AD102E239B41F33F8097490B952246C4
:1048E0001AEE105A0A910C4604E0103E102E08F100
:1048F000080819DD013310321021072BCDE92332CE
:10490000C8F80040C8F80410EFDD22AA294648463E
:104910000DF1940803F024FE00287FF4F1AC103E62
:10492000102EDDE92332E5DC0B9D144601330A9A93
:10493000C8F800203444072BCDE92334C8F80460BC
:1049400000F3A883049B079A9E1A002E08F108081A
:104950007FF755AD102E239B40F30F8576480A90C4
:10496000424621461AEE108A044604E0103E102EFC
:1049700002F1080216DD013310311020072BCDE9BA
:10498000233114605060F1DD22AA4146484603F00D
:10499000E7FD00287FF4B4AC103E102EDDE9233192
:1049A00025AAE8DC90460C4601330A9AC8F8002094
:1049B0003444072BCDE92334C8F8046000F3D481D4
:1049C00008F108081BE50E9B012B40F37381239E21
:1049D000C8F80050013601340123072E2494239691
:1049E000C8F8043000F3968308F10808129B139A64
:1049F00001361C44072EC8E90023CDE9236400F3E7
:104A0000978308F10808DDE910010022002306F071
:104A100049F8002840F07B810E9B0136013B0135AF
:104A20001C44072EC8F800502396C8F8043024947C
:104A300000F3518108F10808169BC8F804300136CC
:104A40001C44072E1EABCDE92364C8F800307FF765
:104A5000E7AC1AEE101A22AA484603F081FD00289E
:104A60007FF44EAC249C0DF19408DBE4102EDDE9BC
:104A7000233222DD199510241AEE105A04E0103E5C
:104A8000102E08F1080817DD01332C491032072BCE
:104A9000C8E90014CDE92332F1DD22AA29464846AF
:104AA0000DF1940803F05CFD00287FF429AC103E62
:104AB000102EDDE92332E7DC199DC8F804600133CC
:104AC000B418072B1D4AC8F80020CDE9233400F3A1
:104AD0007D839DF86B3008F1080860E4CDF80CA0E8
:104AE0000A2C76F1000380F0318330340123DDF8A5
:104AF0000CA08DF8374107930DF2371564E61AEED6
:104B0000101A22AA484603F02BFD00287FF4F8ABC8
:104B1000249C0DF1940855E41AEE101A22AA484676
:104B200003F01EFD00287FF4EBAB249C0DF19408EC
:104B30005BE400BF94C30000A8C3000098C300005A
:104B4000102D239B20DD1AEE107A102604E0103D74
:104B5000102D08F1080817DD0133AC4A1034072B7B
:104B6000C8E90026CDE92334F1DD22AA39464846BA
:104B70000DF1940803F0F4FC00287FF4C1AB103D64
:104B8000102DDDE92334E7DC0133A04AC8F80450D6
:104B90002C44072BCDE92334C8F800207FF74BAC19
:104BA0001AEE101A22AA484603F0DAFC00287FF415
:104BB000A7AB249C3FE41C9A002A40F32B81DDE93B
:104BC0000D739F42A8BF1F46002F0BDD239B0133AF
:104BD0003C44072BC8E900572494239300F3D58560
:104BE00008F108080D9E002FA8BFF61B002E00F349
:104BF00044830D9B1AF4806F2B44079340F0E384A9
:104C00001C9B0E9A934203DB1AF0010F00F0D28333
:104C1000129A13991444C8E90012239A2494013279
:104C2000072A239200F3BF8508F108080E9A079916
:104C3000AE18761AD51AAE42A8BF2E46002E0DDD4C
:104C4000239BC8F8001001333444072BC8F80460D4
:104C50002494239300F3098608F10808002EA8BFC6
:104C6000AD1B002D7FF7DEAB102D239B40F3728729
:104C7000674F0A97224610261AEE104A05E008F1FF
:104C80000808103D102D40F3CA8201331032072B63
:104C9000C8E90076CDE92332F1DD22AA2146484653
:104CA00003F05EFC00287FF42BABDDE923320DF12D
:104CB0009408E6E71AF0010F7FF489AE239EC8F846
:104CC0000050013601340123072E24942396C8F89E
:104CD00004307FF7AFAE1AEE101A22AA484603F04E
:104CE0003FFC00287FF40CABDDE923640DF1940850
:104CF000A2E6302B3FF463AD3023023A05F8013CC5
:104D00004EAB9B1ADDF80CA0079315465CE50E9B95
:104D10005D1E002D7FF790AE102D40F321873C4A99
:104D2000CDF810A023461AEE10AA0A9210271446B6
:104D300005E008F10808103D102D40F3E38201362C
:104D40001033072EC8E90047CDE92363F1DD22AA1D
:104D50005146484603F004FC00287FF4D1AADDE95F
:104D600023630DF19408E6E71AEE101A22AA4846CA
:104D700003F0F6FB00287FF4C3AA249C0DF19408ED
:104D8000FFF73DBB1AF0100340F03D811AF04002DE
:104D900000F0C882099A52F8044B09921E46A4B248
:104DA0002FE4039B13F0100366D1039A12F0400224
:104DB00000F0C682099A52F8044B09921E46A4B22A
:104DC000012322E453F8044B09931AF0100F4FD13A
:104DD0001AF0400F48D044F3C036334624B2FFF7F0
:104DE000BABB2D2364428DF86B3066EB4606CDF8D6
:104DF0000CA001230CE41AF0010F3FF413AB29E5DA
:104E00009BF800700993FFF7A0B900BF98C300009A
:104E1000A8C30000239BB649C8F800100133013431
:104E20000121072B24942393C8F8041000F38484F1
:104E300008F10808002A40F046820E9A0AF00103A1
:104E400013433FF4EFAA129B139A1C44C8E90023B2
:104E5000239B24940133072B239300F3688308F1E9
:104E6000080841E24EADAFE41AF4007F40F0AB8297
:104E7000E6173346FFF76FBB099B53F8044B0993C2
:104E80000123FFF7C2BBDDE9100102460B4605F026
:104E90003BFE002840F02E86612F00F07F85412FD9
:104EA00000F0A082049B013327F02003039300F05D
:104EB000C085472B00F0AB85DDE910014AF4807214
:104EC000002907924FF00003C0F2458441EC180B13
:104ED0000A930893039B462B00F07484452B00F043
:104EE0002585B0EE480AF0EE680A20AB01931DABB1
:104EF0000093049A1CAB0221484601F02DF8039B55
:104F0000472B054640F05E861AF0010F5646DDF845
:104F10001CA040F0E384209B5B1B0E93039B472B5C
:104F200000F01B83039B462B00F089841C9B0D9390
:104F30000D9B039A013B412A1C9300F0E985FAB2CC
:104F40000021002BB8BF0D9B8DF87820BABFC3F1AC
:104F500001032D222B22092B8DF8792040F36D853A
:104F60000DF18704DFF898C1224610468CFB03211F
:104F7000DA17C2EBA10202EB8201A3EB410130314F
:104F800000F8011C19466329134600F1FF32ECDCDE
:104F90003033D9B2831E9C4202F8011C40F20E86C7
:104FA00013460DF17A0201E013F8011B02F8011B10
:104FB0009C42F9D10DF189030DF17A021B1A1344B9
:104FC0001EAA9B1A16930E9B169A012B1A4407923F
:104FD00040F3B285079B129A13440793079A002364
:104FE00026F4806622EAE27246F4807A0C930392F9
:104FF0000F930D930A9B002B40F0DE8204939DF8E3
:105000006B30FFF77DBA099B53F8044B0993FFF708
:10501000F8BA099B069853F8041B0993C217C1E913
:1050200000025D46FFF71DBA159B002B3FF413A944
:10503000159B1B78002B3FF40EA99BF800704AF4D7
:10504000806AFFF782B8CDF80CA0FFF74CBB294B64
:1050500014931AF0200655D0099B073323F0070359
:105060005E6853F8084B09931AF0010F09D054EA0F
:10507000060306D030238DF86D704AF0020A8DF8D1
:105080006C302AF4806303930223FFF7BEBA1A4BF5
:105090001493DEE71AEE101A22AA484603F060FACB
:1050A00000287FF42DA9249C0DF19408FFF7A1B9E5
:1050B0001AEE101A22AA484603F052FA00287FF48A
:1050C0001FA9249C0DF19408FFF7D2BB049A089500
:1050D000062A294628BF062204952B460392074D2F
:1050E000099407920C910F910D91FFF709BA00BF37
:1050F00094C3000064C3000078C300008CC30000A8
:10510000676666661AF0100370D0099B53F8044B6B
:105110000993A9E71AEE101A22AA484603F020FACA
:1051200000287FF4EDA8DDE923640DF194085DE427
:105130001AEE101A22AA484603F012FA00287FF449
:10514000DFA8DDE923640DF194085CE4039B0022F1
:1051500003F48063CDE9077809EE109A0DF59C7A87
:10516000DDF85490174698460CE00023204631465F
:105170000A2205F057FD0A2C76F100031CD30446E1
:105180000E46AA4620460A220023314605F04AFD73
:1051900030320AF1FF3501370AF8012CB8F1000F5F
:1051A000E3D099F800309F42DFD1FF2FDDD00A2CE9
:1051B00076F1000380F0E580CDF854900E97DDF88D
:1051C0002080079F19EE109AFFF7F9BA1AEE101A0D
:1051D00022AA484603F0C4F900287FF491A89DF85C
:1051E0006B30249C0DF19408FFF7D9B81AF04002F7
:1051F00000F0B680099A52F8044B09921E46A4B2F8
:1052000032E71AEE101A22AA484603F0A9F900283C
:105210007FF476A8249C0DF19408FFF716BB144682
:1052200001330A9AC8F800202C44072BC8F8045010
:10523000CDE923347FF7F4A80BE4012BCDF80CA0C3
:105240007FF4ADAA51E4099B069953F8042B5D46FF
:1052500011600993FFF705B9284604960994FEF7F3
:105260008FFE20EAE0719DF86B300790039108965D
:105270000C960F960D96FFF743B9102E239B40F323
:105280009684BC480A90424621461AEE108A10279E
:10529000044604E00832103E102E40F33B820133F6
:1052A0001031072BC2E90047CDE92331F2DD22AAF4
:1052B0004146484603F054F900287FF421A8DDE96F
:1052C000233125AAE7E7129B13991C44C8E9001370
:1052D000239B24940133072B239300F3288108F1A7
:1052E0000808002AC0F2FD820E9AC8F80050013367
:1052F0001444072BCDE92334C8F804207FF790A885
:10530000FFF7A7BBDDF810A01C4601360A9BC8F8C2
:1053100000302C44072ECDE92364C8F804507FF7F1
:1053200089ABD8E4099B1AF4007614BF53F8044BF8
:1053300053F8044B09931CBF1646E4B2FFF761B95A
:10534000039B13F40076099B14BF53F8044B53F8E6
:10535000044B09931CBF1646E4B20123FFF755B96D
:10536000099B1AF4007614BF53F8044B53F8044B0E
:1053700009931CBF1646E4B276E67E4A0A92FFF70E
:1053800013BB189B1799ED1A1A46284603F07AF8B2
:1053900099F801300BB109F10109204631460A2282
:1053A0000023002705F03EFCE9E62D238DF86B3045
:1053B000FFF796B80E9A0799AE18761AD51AAE422C
:1053C000A8BF2E464AE444F3C016334664B2FFF742
:1053D000C2B8099B069953F8042B099311805D46C6
:1053E000FFF73FB830238DF86C3058238DF86D30BF
:1053F000049B632B4AF0020400F3D5820023089338
:1054000035ADDDE910124AF481730793002A27F0C5
:105410002003A2460393C0F29F81002342EC181B95
:105420000A93612F00F04A83412F7FF453ADB0EE11
:10543000480AF0EE680A1CA802F096FF00224FF01E
:105440007F5351EC100B05F0C5F802460B4643ECB8
:10545000192B0022002305F025FB08B101231C9322
:10546000454B0B93049B1995CDE90C7BCDE90EA818
:105470000CEE109ADDF82CB059EC198B5E1E2C4600
:1054800005E000220023013E05F00CFBE0B93B4B98
:1054900000224046494605F09DF88946804605F0C1
:1054A00049FB054605F02CF80B46024649464046A6
:1054B00004F0D8FE1BF80530A24604F8013B731C2B
:1054C000374680468946DCD149EC198B2C4BDDF8F8
:1054D0003C8051EC190B00223E461CEE109ADDE98F
:1054E0000C7BCDF830A00D95DDF838A0199D05F0A6
:1054F00001FB002840F0368251EC190B204B0022B2
:1055000005F0D0FA18B10D9BD90700F12B82002EBF
:10551000334606DB01332344302204F8012BA34237
:10552000FBD1631B56460E93DDF81CA0F6E41AEE81
:10553000101A22AA484603F013F800287EF4E0AEC1
:10554000DDE923341C9A0DF19408CAE61AEE103AEC
:10555000986D01F097FFFEF79FBE1C9B0D93DA1C20
:1055600002DB049A93420DDD023F27F020030393F0
:10557000DEE400BFA8C3000078C300000000304094
:105580000000E03FDDE90D329342C0F27F81F00779
:1055900040F19182129A13440793710503D50D9B34
:1055A000002B00F35A82079B23EAE37303936727D8
:1055B00000230C930F931DE52D2300228DF86B30F3
:1055C0000492FEF7A0BF0E9BCDF828B0DDF83CB0EA
:1055D000079E159FCDF81CA0EB1804934246DDF8FA
:1055E00060A00C9B0B951AEE108AA446BBF1000F2D
:1055F00030D0002B71D1013F0BF1FF3B179BC2E96B
:10560000003A239B0133D444072BCDF890C0239359
:1056100067DC0832049B38789B1B8342A8BF034693
:10562000002B1C460BDD239801309C440728C2E95F
:105630000063CDF890C023905FDC38780832002CEE
:10564000ACBF051B0546002D17DC06440C9BBBF1C7
:10565000000FCED1002B40D10B9D0E9BDDF81CA07E
:10566000DDF828B01597EB189E429046324628BFC9
:105670001A4664460792FFF7C3BA102D23981FDD20
:105680001024634604E0103D102D02F1080216DDDF
:105690000130B34910330728C2E90014CDE92303D0
:1056A000F1DD22AA4146484602F05AFF00287EF466
:1056B00027AE103D102DDDE9230325AAE8DC9C462A
:1056C0000130A74B5560AC440728CDE9230C13608B
:1056D0004DDC387808320644B8E70C9B013B0C934C
:1056E0008CE722AA4146484602F03AFF00287EF4A1
:1056F00007AEDDF890C025AA8CE722AA41464846AD
:1057000002F02EFF00287EF4FBAD3878DDF890C063
:1057100025AA94E790460C4601330A9AC8F800205F
:105720003444072BCDE92334C8F8046000F36181C9
:1057300008F10808FFF75DBA1AEE101A22AA4846C7
:1057400002F00EFF00287EF4DBAD1C9A249C0DF1C4
:105750009408FFF76FBB0893DDE9103408EE103AA8
:1057600004F1004308EE903A2D230A9359E622AA49
:105770004146484602F0F4FE00287EF4C1AD387878
:10578000DDF890C025AA064460E71AEE101A22AA96
:10579000484602F0E5FE00287EF4B2AD249C0DF1EF
:1057A0009408FFF71FBA1AEE101A22AA484602F010
:1057B000D7FE00287EF4A4AD1C9B249C0DF1940818
:1057C000FFF734BA20AB01931DAB0093049AB0EEFF
:1057D000480AF0EE680A1CAB0321484600F0BCFB07
:1057E0000378302B054600F099811C9B049A56469D
:1057F0001344DDF81CA0EC1851EC180B0022002318
:1058000005F050F910B12346FFF786BB209BA34259
:10581000BFF482AB30215A1C20921970209B9C420D
:10582000F9D8FFF779BB049B0393079309949DF87C
:105830006B3004900C900F900D90FEF761BE1C9A97
:105840000D92002A40F39081049906F001030B4366
:1058500040F02B810D9B07936627730500F1FE80B6
:10586000079B23EAE3730393A2E61AEE101A22AA17
:10587000484602F075FE00287EF442AD1C9D0E9B4A
:10588000249C5D1B0DF19408FFF7E8B90E9B129A5A
:105890009A180D9B0792002B40F353816727DCE792
:1058A00000230493FEF753BC1AEE101A1AEE900A66
:1058B00022AA02F055FE00283EF4DBADFEF727BD1C
:1058C0006B6EDC0705D4AB89980502D4A86D01F096
:1058D000D9FD4FF0FF330693FEF723BD049BEC1870
:1058E0008AE75642103280F26F811D480A90424684
:1058F00021461AEE108A1027044603E00832103EB3
:10590000102E5ADD01331031072BC2E90047CDE9D3
:105910002331F3DD22AA4146484602F021FE002849
:105920007EF4EEACDDE9233125AAE8E7049BB0EE76
:10593000480AF0EE680A5C1C20AB01931DAB009393
:1059400022461CAB0221484600F006FB054656469F
:105950002C44DDF81CA04FE7014A0A92FEF7E6BF8F
:10596000A8C300000C9B20930B9B14F8012CD97B3F
:105970008A42234609D1302003F8010C209B5A1E8D
:10598000209213F8012C9142F6D0392A0BBF0B9AC2
:105990000132927AD2B203F8012CC2E530238DF89D
:1059A0006C30782322E5591C484601F015FE054667
:1059B000002800F00C81089023E590460C46013346
:1059C0000A9AC8F800203444072BCDE92334C8F8DC
:1059D00004607FF744AA1AEE101A22AA484602F081
:1059E000BFFD00287EF48CACDDE923340DF1940872
:1059F0007AE41AEE101A22AA484602F0B1FD0028F5
:105A00007EF47EAC249C0DF19408FFF7F2B8049B61
:105A1000002B08BF01230493119B4AF48072002BD2
:105A20000792C0F29B809DED108B0A900890FFF7C3
:105A300058BA06230493FFF73FBA002940F0A88024
:105A400030228DF87A200DF17B02303302F8013BD1
:105A50001EABD31A1693FFF7B6BA672715990B78C2
:105A6000FF2B00F0A78000240D9A204603E00130B0
:105A70000131FF2B08D0934206DAD21A4B78002B63
:105A8000F5D10B780134F4E715910D920F900C9439
:105A90000C9A0F9B18991344079A01FB0323079351
:105AA00023EAE3730393FFF7A5BA129BD3181944B3
:105AB00007916627D1E60D9B07936EE51CA8B0EE13
:105AC000480AF0EE680A02F04FFC00224FF07F53C4
:105AD00051EC100B04F07EFD02460B4643EC192BF3
